{
  "address": "0xDc64a140Aa3E981100a9becA4E685f962f0cF6C9",
  "abi": [
    {
      "inputs": [
        {
          "internalType": "address",
          "name": "_nftMarketplace",
          "type": "address"
        },
        {
          "internalType": "address",
          "name": "_cryptoDevsNFT",
          "type": "address"
        }
      ],
      "stateMutability": "payable",
      "type": "constructor"
    },
    {
      "inputs": [],
      "name": "activeProposalOnly_DeadlineExceeded",
      "type": "error"
    },
    {
      "inputs": [],
      "name": "createProposal_NFTNotForSale",
      "type": "error"
    },
    {
      "inputs": [],
      "name": "excuteProposal_NotEnoughFunds",
      "type": "error"
    },
    {
      "inputs": [],
      "name": "inactiveProposalOnly_DeadlineNotExceeded",
      "type": "error"
    },
    {
      "inputs": [],
      "name": "inactiveProposalOnly_ProposalAlreadyExecuted",
      "type": "error"
    },
    {
      "inputs": [],
      "name": "nftHolderOnly_NotADAOMember",
      "type": "error"
    },
    {
      "inputs": [],
      "name": "voteOnProposal_AlreadyVoted",
      "type": "error"
    },
    {
      "inputs": [],
      "name": "withdraw_FailedToSendEther",
      "type": "error"
    },
    {
      "anonymous": false,
      "inputs": [
        {
          "indexed": true,
          "internalType": "address",
          "name": "previousOwner",
          "type": "address"
        },
        {
          "indexed": true,
          "internalType": "address",
          "name": "newOwner",
          "type": "address"
        }
      ],
      "name": "OwnershipTransferred",
      "type": "event"
    },
    {
      "stateMutability": "payable",
      "type": "fallback"
    },
    {
      "inputs": [
        {
          "internalType": "uint256",
          "name": "_nftTokenId",
          "type": "uint256"
        }
      ],
      "name": "createProposal",
      "outputs": [
        {
          "internalType": "uint256",
          "name": "",
          "type": "uint256"
        }
      ],
      "stateMutability": "nonpayable",
      "type": "function"
    },
    {
      "inputs": [
        {
          "internalType": "uint256",
          "name": "proposalIndex",
          "type": "uint256"
        }
      ],
      "name": "executeProposal",
      "outputs": [],
      "stateMutability": "nonpayable",
      "type": "function"
    },
    {
      "inputs": [],
      "name": "getNumProposals",
      "outputs": [
        {
          "internalType": "uint256",
          "name": "",
          "type": "uint256"
        }
      ],
      "stateMutability": "view",
      "type": "function"
    },
    {
      "inputs": [
        {
          "internalType": "uint256",
          "name": "_nftTokenId",
          "type": "uint256"
        }
      ],
      "name": "getProposalDeadline",
      "outputs": [
        {
          "internalType": "uint256",
          "name": "",
          "type": "uint256"
        }
      ],
      "stateMutability": "view",
      "type": "function"
    },
    {
      "inputs": [
        {
          "internalType": "uint256",
          "name": "_nftTokenId",
          "type": "uint256"
        }
      ],
      "name": "getProposalExecuted",
      "outputs": [
        {
          "internalType": "bool",
          "name": "",
          "type": "bool"
        }
      ],
      "stateMutability": "view",
      "type": "function"
    },
    {
      "inputs": [
        {
          "internalType": "uint256",
          "name": "_nftTokenId",
          "type": "uint256"
        }
      ],
      "name": "getProposalNayVotes",
      "outputs": [
        {
          "internalType": "uint256",
          "name": "",
          "type": "uint256"
        }
      ],
      "stateMutability": "view",
      "type": "function"
    },
    {
      "inputs": [
        {
          "internalType": "uint256",
          "name": "_nftTokenId",
          "type": "uint256"
        }
      ],
      "name": "getProposalNftTokenId",
      "outputs": [
        {
          "internalType": "uint256",
          "name": "",
          "type": "uint256"
        }
      ],
      "stateMutability": "view",
      "type": "function"
    },
    {
      "inputs": [
        {
          "internalType": "uint256",
          "name": "_nftTokenId",
          "type": "uint256"
        },
        {
          "internalType": "uint256",
          "name": "index",
          "type": "uint256"
        }
      ],
      "name": "getProposalVoters",
      "outputs": [
        {
          "internalType": "bool",
          "name": "",
          "type": "bool"
        }
      ],
      "stateMutability": "view",
      "type": "function"
    },
    {
      "inputs": [
        {
          "internalType": "uint256",
          "name": "_nftTokenId",
          "type": "uint256"
        }
      ],
      "name": "getProposalYayVotes",
      "outputs": [
        {
          "internalType": "uint256",
          "name": "",
          "type": "uint256"
        }
      ],
      "stateMutability": "view",
      "type": "function"
    },
    {
      "inputs": [],
      "name": "owner",
      "outputs": [
        {
          "internalType": "address",
          "name": "",
          "type": "address"
        }
      ],
      "stateMutability": "view",
      "type": "function"
    },
    {
      "inputs": [
        {
          "internalType": "uint256",
          "name": "",
          "type": "uint256"
        }
      ],
      "name": "proposals",
      "outputs": [
        {
          "internalType": "uint256",
          "name": "nftTokenId",
          "type": "uint256"
        },
        {
          "internalType": "uint256",
          "name": "deadline",
          "type": "uint256"
        },
        {
          "internalType": "uint256",
          "name": "yayVotes",
          "type": "uint256"
        },
        {
          "internalType": "uint256",
          "name": "nayVotes",
          "type": "uint256"
        },
        {
          "internalType": "bool",
          "name": "executed",
          "type": "bool"
        }
      ],
      "stateMutability": "view",
      "type": "function"
    },
    {
      "inputs": [],
      "name": "renounceOwnership",
      "outputs": [],
      "stateMutability": "nonpayable",
      "type": "function"
    },
    {
      "inputs": [
        {
          "internalType": "address",
          "name": "newOwner",
          "type": "address"
        }
      ],
      "name": "transferOwnership",
      "outputs": [],
      "stateMutability": "nonpayable",
      "type": "function"
    },
    {
      "inputs": [
        {
          "internalType": "uint256",
          "name": "proposalIndex",
          "type": "uint256"
        },
        {
          "internalType": "enum CryptoDevDAO.Vote",
          "name": "vote",
          "type": "uint8"
        }
      ],
      "name": "voteOnProposal",
      "outputs": [],
      "stateMutability": "nonpayable",
      "type": "function"
    },
    {
      "inputs": [],
      "name": "withdrawEther",
      "outputs": [],
      "stateMutability": "nonpayable",
      "type": "function"
    },
    {
      "stateMutability": "payable",
      "type": "receive"
    }
  ],
  "transactionHash": "0xb24171c5a7985844aec48414346f8b78848653b6ad8ca51e98d8ea17876b09f4",
  "args": [
    "0xCf7Ed3AccA5a467e9e704C703E8D87F634fB0Fc9",
    "0x5c416F3b3A312355436797602641429cfb38861c"
  ],
  "numDeployments": 1,
  "solcInputHash": "b4d254737b37957149864b1f9a4bbc64",
  "bytecode": "0x6080604052604051620019b1380380620019b1833981810160405281019062000029919062000209565b620000496200003d620000d360201b60201c565b620000db60201b60201c565b81600360006101000a81548173ffffffffffffffffffffffffffffffffffffffff021916908373ffffffffffffffffffffffffffffffffffffffff16021790555080600460006101000a81548173ffffffffffffffffffffffffffffffffffffffff021916908373ffffffffffffffffffffffffffffffffffffffff160217905550505062000250565b600033905090565b60008060009054906101000a900473ffffffffffffffffffffffffffffffffffffffff169050816000806101000a81548173ffffffffffffffffffffffffffffffffffffffff021916908373ffffffffffffffffffffffffffffffffffffffff1602179055508173ffffffffffffffffffffffffffffffffffffffff168173ffffffffffffffffffffffffffffffffffffffff167f8be0079c531659141344cd1fd0a4f28419497f9722a3daafe3b4186f6b6457e060405160405180910390a35050565b600080fd5b600073ffffffffffffffffffffffffffffffffffffffff82169050919050565b6000620001d182620001a4565b9050919050565b620001e381620001c4565b8114620001ef57600080fd5b50565b6000815190506200020381620001d8565b92915050565b600080604083850312156200022357620002226200019f565b5b60006200023385828601620001f2565b92505060206200024685828601620001f2565b9150509250929050565b61175180620002606000396000f3fe6080604052600436106100ec5760003560e01c80637362377b1161008a5780638f363200116100595780638f3632001461031457806391cb2d9b14610351578063efafb22e1461038e578063f2fde38b146103b7576100f3565b80637362377b1461026a578063798974dd146102815780638360ea7a146102ac5780638da5cb5b146102e9576100f3565b80632108d00b116100c65780632108d00b1461019c5780635992d8c1146101d95780635a43dc0014610216578063715018a614610253576100f3565b8063013cf08b146100f55780630d61b519146101365780631bd85e301461015f576100f3565b366100f357005b005b34801561010157600080fd5b5061011c60048036038101906101179190611197565b6103e0565b60405161012d9594939291906111ee565b60405180910390f35b34801561014257600080fd5b5061015d60048036038101906101589190611197565b610423565b005b34801561016b57600080fd5b5061018660048036038101906101819190611197565b610774565b6040516101939190611241565b60405180910390f35b3480156101a857600080fd5b506101c360048036038101906101be9190611197565b6107a6565b6040516101d0919061125c565b60405180910390f35b3480156101e557600080fd5b5061020060048036038101906101fb9190611197565b6107cb565b60405161020d919061125c565b60405180910390f35b34801561022257600080fd5b5061023d60048036038101906102389190611197565b6107f0565b60405161024a919061125c565b60405180910390f35b34801561025f57600080fd5b50610268610a1d565b005b34801561027657600080fd5b5061027f610a31565b005b34801561028d57600080fd5b50610296610aec565b6040516102a3919061125c565b60405180910390f35b3480156102b857600080fd5b506102d360048036038101906102ce9190611197565b610af6565b6040516102e0919061125c565b60405180910390f35b3480156102f557600080fd5b506102fe610b1b565b60405161030b91906112b8565b60405180910390f35b34801561032057600080fd5b5061033b60048036038101906103369190611197565b610b44565b604051610348919061125c565b60405180910390f35b34801561035d57600080fd5b50610378600480360381019061037391906112d3565b610b69565b6040516103859190611241565b60405180910390f35b34801561039a57600080fd5b506103b560048036038101906103b09190611338565b610bad565b005b3480156103c357600080fd5b506103de60048036038101906103d991906113a4565b610f8e565b005b60016020528060005260406000206000915090508060000154908060010154908060020154908060030154908060040160009054906101000a900460ff16905085565b6000600460009054906101000a900473ffffffffffffffffffffffffffffffffffffffff1673ffffffffffffffffffffffffffffffffffffffff166370a08231336040518263ffffffff1660e01b815260040161048091906112b8565b60206040518083038186803b15801561049857600080fd5b505afa1580156104ac573d6000803e3d6000fd5b505050506040513d601f19601f820116820180604052508101906104d091906113e6565b11610507576040517f0448340700000000000000000000000000000000000000000000000000000000815260040160405180910390fd5b804260016000838152602001908152602001600020600101541115610558576040517f4ea0565d00000000000000000000000000000000000000000000000000000000815260040160405180910390fd5b600015156001600083815260200190815260200160002060040160009054906101000a900460ff161515146105b9576040517fb54f4a1e00000000000000000000000000000000000000000000000000000000815260040160405180910390fd5b6000600160008481526020019081526020016000209050806003015481600201541115610752576000600360009054906101000a900473ffffffffffffffffffffffffffffffffffffffff1673ffffffffffffffffffffffffffffffffffffffff1663fb107a4f6040518163ffffffff1660e01b815260040160206040518083038186803b15801561064a57600080fd5b505afa15801561065e573d6000803e3d6000fd5b505050506040513d601f19601f8201168201806040525081019061068291906113e6565b9050804710156106be576040517f18f7b71100000000000000000000000000000000000000000000000000000000815260040160405180910390fd5b600360009054906101000a900473ffffffffffffffffffffffffffffffffffffffff1673ffffffffffffffffffffffffffffffffffffffff1663efef39a18284600001546040518363ffffffff1660e01b815260040161071e919061125c565b6000604051808303818588803b15801561073757600080fd5b505af115801561074b573d6000803e3d6000fd5b5050505050505b60018160040160006101000a81548160ff021916908315150217905550505050565b6000806001600084815260200190815260200160002090508060040160009054906101000a900460ff16915050919050565b6000806001600084815260200190815260200160002090508060020154915050919050565b6000806001600084815260200190815260200160002090508060030154915050919050565b600080600460009054906101000a900473ffffffffffffffffffffffffffffffffffffffff1673ffffffffffffffffffffffffffffffffffffffff166370a08231336040518263ffffffff1660e01b815260040161084e91906112b8565b60206040518083038186803b15801561086657600080fd5b505afa15801561087a573d6000803e3d6000fd5b505050506040513d601f19601f8201168201806040525081019061089e91906113e6565b116108d5576040517f0448340700000000000000000000000000000000000000000000000000000000815260040160405180910390fd5b600360009054906101000a900473ffffffffffffffffffffffffffffffffffffffff1673ffffffffffffffffffffffffffffffffffffffff166396e494e8836040518263ffffffff1660e01b8152600401610930919061125c565b60206040518083038186803b15801561094857600080fd5b505afa15801561095c573d6000803e3d6000fd5b505050506040513d601f19601f82011682018060405250810190610980919061143f565b6109b6576040517f4decce1800000000000000000000000000000000000000000000000000000000815260040160405180910390fd5b6000600160006002548152602001908152602001600020905082816000018190555061012c426109e6919061149b565b816001018190555060026000815480929190610a01906114f1565b91905055506001600254610a15919061153a565b915050919050565b610a25611012565b610a2f6000611090565b565b610a39611012565b60004790506000610a48610b1b565b73ffffffffffffffffffffffffffffffffffffffff1682604051610a6b9061159f565b60006040518083038185875af1925050503d8060008114610aa8576040519150601f19603f3d011682016040523d82523d6000602084013e610aad565b606091505b5050905080610ae8576040517f8ba7066700000000000000000000000000000000000000000000000000000000815260040160405180910390fd5b5050565b6000600254905090565b6000806001600084815260200190815260200160002090508060000154915050919050565b60008060009054906101000a900473ffffffffffffffffffffffffffffffffffffffff16905090565b6000806001600084815260200190815260200160002090508060010154915050919050565b60008060016000858152602001908152602001600020905080600501600084815260200190815260200160002060009054906101000a900460ff1691505092915050565b6000600460009054906101000a900473ffffffffffffffffffffffffffffffffffffffff1673ffffffffffffffffffffffffffffffffffffffff166370a08231336040518263ffffffff1660e01b8152600401610c0a91906112b8565b60206040518083038186803b158015610c2257600080fd5b505afa158015610c36573d6000803e3d6000fd5b505050506040513d601f19601f82011682018060405250810190610c5a91906113e6565b11610c91576040517f0448340700000000000000000000000000000000000000000000000000000000815260040160405180910390fd5b8142600160008381526020019081526020016000206001015411610ce1576040517f44585a8500000000000000000000000000000000000000000000000000000000815260040160405180910390fd5b60006001600085815260200190815260200160002090506000600460009054906101000a900473ffffffffffffffffffffffffffffffffffffffff1673ffffffffffffffffffffffffffffffffffffffff166370a08231336040518263ffffffff1660e01b8152600401610d5591906112b8565b60206040518083038186803b158015610d6d57600080fd5b505afa158015610d81573d6000803e3d6000fd5b505050506040513d601f19601f82011682018060405250810190610da591906113e6565b90506000805b82811015610ee2576000600460009054906101000a900473ffffffffffffffffffffffffffffffffffffffff1673ffffffffffffffffffffffffffffffffffffffff16632f745c5933846040518363ffffffff1660e01b8152600401610e129291906115b4565b60206040518083038186803b158015610e2a57600080fd5b505afa158015610e3e573d6000803e3d6000fd5b505050506040513d601f19601f82011682018060405250810190610e6291906113e6565b90506000151585600501600083815260200190815260200160002060009054906101000a900460ff1615151415610ed0578280610e9e906114f1565b935050600185600501600083815260200190815260200160002060006101000a81548160ff0219169083151502179055505b5080610edb906114f1565b9050610dab565b5060008111610f1d576040517f9ceb031a00000000000000000000000000000000000000000000000000000000815260040160405180910390fd5b60006001811115610f3157610f306115dd565b5b856001811115610f4457610f436115dd565b5b1415610f6a5780836002016000828254610f5e919061149b565b92505081905550610f86565b80836003016000828254610f7e919061149b565b925050819055505b505050505050565b610f96611012565b600073ffffffffffffffffffffffffffffffffffffffff168173ffffffffffffffffffffffffffffffffffffffff161415611006576040517f08c379a0000000000000000000000000000000000000000000000000000000008152600401610ffd9061168f565b60405180910390fd5b61100f81611090565b50565b61101a611154565b73ffffffffffffffffffffffffffffffffffffffff16611038610b1b565b73ffffffffffffffffffffffffffffffffffffffff161461108e576040517f08c379a0000000000000000000000000000000000000000000000000000000008152600401611085906116fb565b60405180910390fd5b565b60008060009054906101000a900473ffffffffffffffffffffffffffffffffffffffff169050816000806101000a81548173ffffffffffffffffffffffffffffffffffffffff021916908373ffffffffffffffffffffffffffffffffffffffff1602179055508173ffffffffffffffffffffffffffffffffffffffff168173ffffffffffffffffffffffffffffffffffffffff167f8be0079c531659141344cd1fd0a4f28419497f9722a3daafe3b4186f6b6457e060405160405180910390a35050565b600033905090565b600080fd5b6000819050919050565b61117481611161565b811461117f57600080fd5b50565b6000813590506111918161116b565b92915050565b6000602082840312156111ad576111ac61115c565b5b60006111bb84828501611182565b91505092915050565b6111cd81611161565b82525050565b60008115159050919050565b6111e8816111d3565b82525050565b600060a08201905061120360008301886111c4565b61121060208301876111c4565b61121d60408301866111c4565b61122a60608301856111c4565b61123760808301846111df565b9695505050505050565b600060208201905061125660008301846111df565b92915050565b600060208201905061127160008301846111c4565b92915050565b600073ffffffffffffffffffffffffffffffffffffffff82169050919050565b60006112a282611277565b9050919050565b6112b281611297565b82525050565b60006020820190506112cd60008301846112a9565b92915050565b600080604083850312156112ea576112e961115c565b5b60006112f885828601611182565b925050602061130985828601611182565b9150509250929050565b6002811061132057600080fd5b50565b60008135905061133281611313565b92915050565b6000806040838503121561134f5761134e61115c565b5b600061135d85828601611182565b925050602061136e85828601611323565b9150509250929050565b61138181611297565b811461138c57600080fd5b50565b60008135905061139e81611378565b92915050565b6000602082840312156113ba576113b961115c565b5b60006113c88482850161138f565b91505092915050565b6000815190506113e08161116b565b92915050565b6000602082840312156113fc576113fb61115c565b5b600061140a848285016113d1565b91505092915050565b61141c816111d3565b811461142757600080fd5b50565b60008151905061143981611413565b92915050565b6000602082840312156114555761145461115c565b5b60006114638482850161142a565b91505092915050565b7f4e487b7100000000000000000000000000000000000000000000000000000000600052601160045260246000fd5b60006114a682611161565b91506114b183611161565b9250827fffffffffffffffffffffffffffffffffffffffffffffffffffffffffffffffff038211156114e6576114e561146c565b5b828201905092915050565b60006114fc82611161565b91507fffffffffffffffffffffffffffffffffffffffffffffffffffffffffffffffff82141561152f5761152e61146c565b5b600182019050919050565b600061154582611161565b915061155083611161565b9250828210156115635761156261146c565b5b828203905092915050565b600081905092915050565b50565b600061158960008361156e565b915061159482611579565b600082019050919050565b60006115aa8261157c565b9150819050919050565b60006040820190506115c960008301856112a9565b6115d660208301846111c4565b9392505050565b7f4e487b7100000000000000000000000000000000000000000000000000000000600052602160045260246000fd5b600082825260208201905092915050565b7f4f776e61626c653a206e6577206f776e657220697320746865207a65726f206160008201527f6464726573730000000000000000000000000000000000000000000000000000602082015250565b600061167960268361160c565b91506116848261161d565b604082019050919050565b600060208201905081810360008301526116a88161166c565b9050919050565b7f4f776e61626c653a2063616c6c6572206973206e6f7420746865206f776e6572600082015250565b60006116e560208361160c565b91506116f0826116af565b602082019050919050565b60006020820190508181036000830152611714816116d8565b905091905056fea2646970667358221220b532a0685777d9aa7fed89f2d603abfa03d84678dcfb4f3d16bfc443703fa90364736f6c63430008090033",
  "devdoc": {
    "author": "Kehinde A.",
    "kind": "dev",
    "methods": {
      "createProposal(uint256)": {
        "details": "createProposal allows a CryptoDevsNFT holder to create a new proposal in the DAO",
        "params": {
          "_nftTokenId": "- the tokenID of the NFT to be purchased from FakeNFTMarketplace if this proposal passes"
        },
        "returns": {
          "_0": "Returns the proposal index for the newly created proposal"
        }
      },
      "executeProposal(uint256)": {
        "details": "executeProposal allows any CryptoDevsNFT holder to execute a proposal after it's deadline has been exceeded",
        "params": {
          "proposalIndex": "- the index of the proposal to execute in the proposals array"
        }
      },
      "owner()": {
        "details": "Returns the address of the current owner."
      },
      "renounceOwnership()": {
        "details": "Leaves the contract without owner. It will not be possible to call `onlyOwner` functions anymore. Can only be called by the current owner. NOTE: Renouncing ownership will leave the contract without an owner, thereby removing any functionality that is only available to the owner."
      },
      "transferOwnership(address)": {
        "details": "Transfers ownership of the contract to a new account (`newOwner`). Can only be called by the current owner."
      },
      "voteOnProposal(uint256,uint8)": {
        "details": "voteOnProposal allows a CryptoDevsNFT holder to cast their vote on an active proposal",
        "params": {
          "proposalIndex": "- the index of the proposal to vote on in the proposals array",
          "vote": "- the type of vote they want to cast"
        }
      },
      "withdrawEther()": {
        "details": "withdrawEther allows the contract owner (deployer) to withdraw the ETH from the contract"
      }
    },
    "title": "Crypto Dev DAO",
    "version": 1
  },
  "userdoc": {
    "kind": "user",
    "methods": {},
    "notice": "A Crypto Dev DAO. Anyone with a CryptoDevs NFT can create a proposal to purchase a different NFT from an NFT marketplace. Everyone with a CryptoDevs NFT can vote for or against the active proposals. Each NFT counts as one vote for each proposal. If majority of the voters vote for the proposal by the deadline, the NFT purchase is automatically executed.",
    "version": 1
  },
  "storageLayout": {
    "storage": [
      {
        "astId": 7,
        "contract": "contracts/CryptoDevDAO.sol:CryptoDevDAO",
        "label": "_owner",
        "offset": 0,
        "slot": "0",
        "type": "t_address"
      },
      {
        "astId": 2898,
        "contract": "contracts/CryptoDevDAO.sol:CryptoDevDAO",
        "label": "proposals",
        "offset": 0,
        "slot": "1",
        "type": "t_mapping(t_uint256,t_struct(Proposal)2893_storage)"
      },
      {
        "astId": 2900,
        "contract": "contracts/CryptoDevDAO.sol:CryptoDevDAO",
        "label": "numProposals",
        "offset": 0,
        "slot": "2",
        "type": "t_uint256"
      },
      {
        "astId": 2903,
        "contract": "contracts/CryptoDevDAO.sol:CryptoDevDAO",
        "label": "nftMarketplace",
        "offset": 0,
        "slot": "3",
        "type": "t_contract(INFTMarketplace)3657"
      },
      {
        "astId": 2906,
        "contract": "contracts/CryptoDevDAO.sol:CryptoDevDAO",
        "label": "cryptoDevsNFT",
        "offset": 0,
        "slot": "4",
        "type": "t_contract(INFTCollection)3634"
      }
    ],
    "types": {
      "t_address": {
        "encoding": "inplace",
        "label": "address",
        "numberOfBytes": "20"
      },
      "t_bool": {
        "encoding": "inplace",
        "label": "bool",
        "numberOfBytes": "1"
      },
      "t_contract(INFTCollection)3634": {
        "encoding": "inplace",
        "label": "contract INFTCollection",
        "numberOfBytes": "20"
      },
      "t_contract(INFTMarketplace)3657": {
        "encoding": "inplace",
        "label": "contract INFTMarketplace",
        "numberOfBytes": "20"
      },
      "t_mapping(t_uint256,t_bool)": {
        "encoding": "mapping",
        "key": "t_uint256",
        "label": "mapping(uint256 => bool)",
        "numberOfBytes": "32",
        "value": "t_bool"
      },
      "t_mapping(t_uint256,t_struct(Proposal)2893_storage)": {
        "encoding": "mapping",
        "key": "t_uint256",
        "label": "mapping(uint256 => struct CryptoDevDAO.Proposal)",
        "numberOfBytes": "32",
        "value": "t_struct(Proposal)2893_storage"
      },
      "t_struct(Proposal)2893_storage": {
        "encoding": "inplace",
        "label": "struct CryptoDevDAO.Proposal",
        "members": [
          {
            "astId": 2880,
            "contract": "contracts/CryptoDevDAO.sol:CryptoDevDAO",
            "label": "nftTokenId",
            "offset": 0,
            "slot": "0",
            "type": "t_uint256"
          },
          {
            "astId": 2882,
            "contract": "contracts/CryptoDevDAO.sol:CryptoDevDAO",
            "label": "deadline",
            "offset": 0,
            "slot": "1",
            "type": "t_uint256"
          },
          {
            "astId": 2884,
            "contract": "contracts/CryptoDevDAO.sol:CryptoDevDAO",
            "label": "yayVotes",
            "offset": 0,
            "slot": "2",
            "type": "t_uint256"
          },
          {
            "astId": 2886,
            "contract": "contracts/CryptoDevDAO.sol:CryptoDevDAO",
            "label": "nayVotes",
            "offset": 0,
            "slot": "3",
            "type": "t_uint256"
          },
          {
            "astId": 2888,
            "contract": "contracts/CryptoDevDAO.sol:CryptoDevDAO",
            "label": "executed",
            "offset": 0,
            "slot": "4",
            "type": "t_bool"
          },
          {
            "astId": 2892,
            "contract": "contracts/CryptoDevDAO.sol:CryptoDevDAO",
            "label": "voters",
            "offset": 0,
            "slot": "5",
            "type": "t_mapping(t_uint256,t_bool)"
          }
        ],
        "numberOfBytes": "192"
      },
      "t_uint256": {
        "encoding": "inplace",
        "label": "uint256",
        "numberOfBytes": "32"
      }
    }
  }
}