{
  "address": "0x2dCFD15490F94C6514943A6BF8bD51b98225A94B",
  "abi": [
    {
      "inputs": [
        {
          "internalType": "address",
          "name": "nftCollectionContract",
          "type": "address"
        }
      ],
      "stateMutability": "nonpayable",
      "type": "constructor"
    },
    {
      "inputs": [],
      "name": "claim_NoNFTOwned",
      "type": "error"
    },
    {
      "inputs": [],
      "name": "claim_TokensAlreadyClaim",
      "type": "error"
    },
    {
      "inputs": [],
      "name": "mint_ExceedsTheMaxTotalSupply",
      "type": "error"
    },
    {
      "inputs": [],
      "name": "mint_NotEnoughETHSent",
      "type": "error"
    },
    {
      "inputs": [],
      "name": "withdraw_FailedToSendETH",
      "type": "error"
    },
    {
      "anonymous": false,
      "inputs": [
        {
          "indexed": true,
          "internalType": "address",
          "name": "owner",
          "type": "address"
        },
        {
          "indexed": true,
          "internalType": "address",
          "name": "spender",
          "type": "address"
        },
        {
          "indexed": false,
          "internalType": "uint256",
          "name": "value",
          "type": "uint256"
        }
      ],
      "name": "Approval",
      "type": "event"
    },
    {
      "anonymous": false,
      "inputs": [
        {
          "indexed": true,
          "internalType": "address",
          "name": "previousOwner",
          "type": "address"
        },
        {
          "indexed": true,
          "internalType": "address",
          "name": "newOwner",
          "type": "address"
        }
      ],
      "name": "OwnershipTransferred",
      "type": "event"
    },
    {
      "anonymous": false,
      "inputs": [
        {
          "indexed": true,
          "internalType": "address",
          "name": "from",
          "type": "address"
        },
        {
          "indexed": true,
          "internalType": "address",
          "name": "to",
          "type": "address"
        },
        {
          "indexed": false,
          "internalType": "uint256",
          "name": "value",
          "type": "uint256"
        }
      ],
      "name": "Transfer",
      "type": "event"
    },
    {
      "inputs": [
        {
          "internalType": "address",
          "name": "owner",
          "type": "address"
        },
        {
          "internalType": "address",
          "name": "spender",
          "type": "address"
        }
      ],
      "name": "allowance",
      "outputs": [
        {
          "internalType": "uint256",
          "name": "",
          "type": "uint256"
        }
      ],
      "stateMutability": "view",
      "type": "function"
    },
    {
      "inputs": [
        {
          "internalType": "address",
          "name": "spender",
          "type": "address"
        },
        {
          "internalType": "uint256",
          "name": "amount",
          "type": "uint256"
        }
      ],
      "name": "approve",
      "outputs": [
        {
          "internalType": "bool",
          "name": "",
          "type": "bool"
        }
      ],
      "stateMutability": "nonpayable",
      "type": "function"
    },
    {
      "inputs": [
        {
          "internalType": "address",
          "name": "account",
          "type": "address"
        }
      ],
      "name": "balanceOf",
      "outputs": [
        {
          "internalType": "uint256",
          "name": "",
          "type": "uint256"
        }
      ],
      "stateMutability": "view",
      "type": "function"
    },
    {
      "inputs": [],
      "name": "claim",
      "outputs": [],
      "stateMutability": "nonpayable",
      "type": "function"
    },
    {
      "inputs": [],
      "name": "decimals",
      "outputs": [
        {
          "internalType": "uint8",
          "name": "",
          "type": "uint8"
        }
      ],
      "stateMutability": "view",
      "type": "function"
    },
    {
      "inputs": [
        {
          "internalType": "address",
          "name": "spender",
          "type": "address"
        },
        {
          "internalType": "uint256",
          "name": "subtractedValue",
          "type": "uint256"
        }
      ],
      "name": "decreaseAllowance",
      "outputs": [
        {
          "internalType": "bool",
          "name": "",
          "type": "bool"
        }
      ],
      "stateMutability": "nonpayable",
      "type": "function"
    },
    {
      "inputs": [
        {
          "internalType": "uint256",
          "name": "num",
          "type": "uint256"
        }
      ],
      "name": "getAvaiableTokenId",
      "outputs": [
        {
          "internalType": "bool",
          "name": "",
          "type": "bool"
        }
      ],
      "stateMutability": "view",
      "type": "function"
    },
    {
      "inputs": [],
      "name": "getMaxTotalSupply",
      "outputs": [
        {
          "internalType": "uint256",
          "name": "",
          "type": "uint256"
        }
      ],
      "stateMutability": "pure",
      "type": "function"
    },
    {
      "inputs": [],
      "name": "getNumOfTokenPerNFT",
      "outputs": [
        {
          "internalType": "uint256",
          "name": "",
          "type": "uint256"
        }
      ],
      "stateMutability": "pure",
      "type": "function"
    },
    {
      "inputs": [],
      "name": "getTokenPrice",
      "outputs": [
        {
          "internalType": "uint256",
          "name": "",
          "type": "uint256"
        }
      ],
      "stateMutability": "pure",
      "type": "function"
    },
    {
      "inputs": [
        {
          "internalType": "address",
          "name": "spender",
          "type": "address"
        },
        {
          "internalType": "uint256",
          "name": "addedValue",
          "type": "uint256"
        }
      ],
      "name": "increaseAllowance",
      "outputs": [
        {
          "internalType": "bool",
          "name": "",
          "type": "bool"
        }
      ],
      "stateMutability": "nonpayable",
      "type": "function"
    },
    {
      "inputs": [
        {
          "internalType": "uint256",
          "name": "amount",
          "type": "uint256"
        }
      ],
      "name": "mint",
      "outputs": [],
      "stateMutability": "payable",
      "type": "function"
    },
    {
      "inputs": [],
      "name": "name",
      "outputs": [
        {
          "internalType": "string",
          "name": "",
          "type": "string"
        }
      ],
      "stateMutability": "view",
      "type": "function"
    },
    {
      "inputs": [],
      "name": "owner",
      "outputs": [
        {
          "internalType": "address",
          "name": "",
          "type": "address"
        }
      ],
      "stateMutability": "view",
      "type": "function"
    },
    {
      "inputs": [],
      "name": "renounceOwnership",
      "outputs": [],
      "stateMutability": "nonpayable",
      "type": "function"
    },
    {
      "inputs": [],
      "name": "symbol",
      "outputs": [
        {
          "internalType": "string",
          "name": "",
          "type": "string"
        }
      ],
      "stateMutability": "view",
      "type": "function"
    },
    {
      "inputs": [],
      "name": "totalSupply",
      "outputs": [
        {
          "internalType": "uint256",
          "name": "",
          "type": "uint256"
        }
      ],
      "stateMutability": "view",
      "type": "function"
    },
    {
      "inputs": [
        {
          "internalType": "address",
          "name": "to",
          "type": "address"
        },
        {
          "internalType": "uint256",
          "name": "amount",
          "type": "uint256"
        }
      ],
      "name": "transfer",
      "outputs": [
        {
          "internalType": "bool",
          "name": "",
          "type": "bool"
        }
      ],
      "stateMutability": "nonpayable",
      "type": "function"
    },
    {
      "inputs": [
        {
          "internalType": "address",
          "name": "from",
          "type": "address"
        },
        {
          "internalType": "address",
          "name": "to",
          "type": "address"
        },
        {
          "internalType": "uint256",
          "name": "amount",
          "type": "uint256"
        }
      ],
      "name": "transferFrom",
      "outputs": [
        {
          "internalType": "bool",
          "name": "",
          "type": "bool"
        }
      ],
      "stateMutability": "nonpayable",
      "type": "function"
    },
    {
      "inputs": [
        {
          "internalType": "address",
          "name": "newOwner",
          "type": "address"
        }
      ],
      "name": "transferOwnership",
      "outputs": [],
      "stateMutability": "nonpayable",
      "type": "function"
    },
    {
      "inputs": [],
      "name": "withdraw",
      "outputs": [],
      "stateMutability": "nonpayable",
      "type": "function"
    }
  ],
  "transactionHash": "0x0d9bf324b84c48295e9c8dab1a7472425689107ca648684edc1a57dec2be5374",
  "args": [
    "0xe7f1725E7734CE288F8367e1Bb143E90bb3F0512"
  ],
  "numDeployments": 1,
  "solcInputHash": "aa5b3e268352267ae28faa101df67ea4",
  "bytecode": "0x60806040523480156200001157600080fd5b506040516200237b3803806200237b833981810160405281019062000037919062000327565b6040518060400160405280601081526020017f43727970746f2044657620546f6b656e000000000000000000000000000000008152506040518060400160405280600281526020017f43440000000000000000000000000000000000000000000000000000000000008152508160039080519060200190620000bb9291906200020d565b508060049080519060200190620000d49291906200020d565b505050620000f7620000eb6200013f60201b60201c565b6200014760201b60201c565b80600660006101000a81548173ffffffffffffffffffffffffffffffffffffffff021916908373ffffffffffffffffffffffffffffffffffffffff16021790555050620003be565b600033905090565b6000600560009054906101000a900473ffffffffffffffffffffffffffffffffffffffff16905081600560006101000a81548173ffffffffffffffffffffffffffffffffffffffff021916908373ffffffffffffffffffffffffffffffffffffffff1602179055508173ffffffffffffffffffffffffffffffffffffffff168173ffffffffffffffffffffffffffffffffffffffff167f8be0079c531659141344cd1fd0a4f28419497f9722a3daafe3b4186f6b6457e060405160405180910390a35050565b8280546200021b9062000388565b90600052602060002090601f0160209004810192826200023f57600085556200028b565b82601f106200025a57805160ff19168380011785556200028b565b828001600101855582156200028b579182015b828111156200028a5782518255916020019190600101906200026d565b5b5090506200029a91906200029e565b5090565b5b80821115620002b95760008160009055506001016200029f565b5090565b600080fd5b600073ffffffffffffffffffffffffffffffffffffffff82169050919050565b6000620002ef82620002c2565b9050919050565b6200030181620002e2565b81146200030d57600080fd5b50565b6000815190506200032181620002f6565b92915050565b60006020828403121562000340576200033f620002bd565b5b6000620003508482850162000310565b91505092915050565b7f4e487b7100000000000000000000000000000000000000000000000000000000600052602260045260246000fd5b60006002820490506001821680620003a157607f821691505b60208210811415620003b857620003b762000359565b5b50919050565b611fad80620003ce6000396000f3fe60806040526004361061012a5760003560e01c80635db30bb1116100ab57806395d89b411161006f57806395d89b41146103d2578063a0712d68146103fd578063a457c2d714610419578063a9059cbb14610456578063dd62ed3e14610493578063f2fde38b146104d05761012a565b80635db30bb1146102eb57806370a0823114610316578063715018a614610353578063770fcaa51461036a5780638da5cb5b146103a75761012a565b8063313ce567116100f2578063313ce5671461022a57806339509351146102555780633ccfd60b146102925780634b94f50e146102a95780634e71d92d146102d45761012a565b806306fdde031461012f578063095ea7b31461015a57806318160ddd1461019757806323b872dd146101c25780633074116f146101ff575b600080fd5b34801561013b57600080fd5b506101446104f9565b6040516101519190611552565b60405180910390f35b34801561016657600080fd5b50610181600480360381019061017c919061160d565b61058b565b60405161018e9190611668565b60405180910390f35b3480156101a357600080fd5b506101ac6105ae565b6040516101b99190611692565b60405180910390f35b3480156101ce57600080fd5b506101e960048036038101906101e491906116ad565b6105b8565b6040516101f69190611668565b60405180910390f35b34801561020b57600080fd5b506102146105e7565b6040516102219190611692565b60405180910390f35b34801561023657600080fd5b5061023f6105f0565b60405161024c919061171c565b60405180910390f35b34801561026157600080fd5b5061027c6004803603810190610277919061160d565b6105f9565b6040516102899190611668565b60405180910390f35b34801561029e57600080fd5b506102a7610630565b005b3480156102b557600080fd5b506102be6106f1565b6040516102cb9190611692565b60405180910390f35b3480156102e057600080fd5b506102e9610700565b005b3480156102f757600080fd5b50610300610974565b60405161030d9190611692565b60405180910390f35b34801561032257600080fd5b5061033d60048036038101906103389190611737565b61097e565b60405161034a9190611692565b60405180910390f35b34801561035f57600080fd5b506103686109c6565b005b34801561037657600080fd5b50610391600480360381019061038c9190611764565b6109da565b60405161039e9190611668565b60405180910390f35b3480156103b357600080fd5b506103bc610a04565b6040516103c991906117a0565b60405180910390f35b3480156103de57600080fd5b506103e7610a2e565b6040516103f49190611552565b60405180910390f35b61041760048036038101906104129190611764565b610ac0565b005b34801561042557600080fd5b50610440600480360381019061043b919061160d565b610b86565b60405161044d9190611668565b60405180910390f35b34801561046257600080fd5b5061047d6004803603810190610478919061160d565b610bfd565b60405161048a9190611668565b60405180910390f35b34801561049f57600080fd5b506104ba60048036038101906104b591906117bb565b610c20565b6040516104c79190611692565b60405180910390f35b3480156104dc57600080fd5b506104f760048036038101906104f29190611737565b610ca7565b005b6060600380546105089061182a565b80601f01602080910402602001604051908101604052809291908181526020018280546105349061182a565b80156105815780601f1061055657610100808354040283529160200191610581565b820191906000526020600020905b81548152906001019060200180831161056457829003601f168201915b5050505050905090565b600080610596610d2b565b90506105a3818585610d33565b600191505092915050565b6000600254905090565b6000806105c3610d2b565b90506105d0858285610efe565b6105db858585610f8a565b60019150509392505050565b6000600a905090565b60006012905090565b600080610604610d2b565b90506106258185856106168589610c20565b610620919061188b565b610d33565b600191505092915050565b61063861120b565b6000610642610a04565b9050600047905060008273ffffffffffffffffffffffffffffffffffffffff168260405161066f90611912565b60006040518083038185875af1925050503d80600081146106ac576040519150601f19603f3d011682016040523d82523d6000602084013e6106b1565b606091505b50509050806106ec576040517fd92aa15500000000000000000000000000000000000000000000000000000000815260040160405180910390fd5b505050565b600066038d7ea4c68000905090565b60003390506000600660009054906101000a900473ffffffffffffffffffffffffffffffffffffffff1673ffffffffffffffffffffffffffffffffffffffff166370a08231836040518263ffffffff1660e01b815260040161076291906117a0565b60206040518083038186803b15801561077a57600080fd5b505afa15801561078e573d6000803e3d6000fd5b505050506040513d601f19601f820116820180604052508101906107b2919061193c565b9050600081116107ee576040517fd7042ae100000000000000000000000000000000000000000000000000000000815260040160405180910390fd5b6000805b8281101561091e576000600660009054906101000a900473ffffffffffffffffffffffffffffffffffffffff1673ffffffffffffffffffffffffffffffffffffffff16632f745c5986846040518363ffffffff1660e01b8152600401610859929190611969565b60206040518083038186803b15801561087157600080fd5b505afa158015610885573d6000803e3d6000fd5b505050506040513d601f19601f820116820180604052508101906108a9919061193c565b90506007600082815260200190815260200160002060009054906101000a900460ff1661090c576001836108dd919061188b565b925060016007600083815260200190815260200160002060006101000a81548160ff0219169083151502179055505b508061091790611992565b90506107f2565b5060008111610959576040517f54ddf77500000000000000000000000000000000000000000000000000000000815260040160405180910390fd5b61096f33600a8361096a91906119db565b611289565b505050565b6000612710905090565b60008060008373ffffffffffffffffffffffffffffffffffffffff1673ffffffffffffffffffffffffffffffffffffffff168152602001908152602001600020549050919050565b6109ce61120b565b6109d860006113e9565b565b60006007600083815260200190815260200160002060009054906101000a900460ff169050919050565b6000600560009054906101000a900473ffffffffffffffffffffffffffffffffffffffff16905090565b606060048054610a3d9061182a565b80601f0160208091040260200160405190810160405280929190818152602001828054610a699061182a565b8015610ab65780601f10610a8b57610100808354040283529160200191610ab6565b820191906000526020600020905b815481529060010190602001808311610a9957829003601f168201915b5050505050905090565b60008166038d7ea4c68000610ad591906119db565b905080341015610b11576040517f0d1f030900000000000000000000000000000000000000000000000000000000815260040160405180910390fd5b6000670de0b6b3a764000083610b2791906119db565b905061271081610b356105ae565b610b3f919061188b565b1115610b77576040517f83b1f6d500000000000000000000000000000000000000000000000000000000815260040160405180910390fd5b610b813382611289565b505050565b600080610b91610d2b565b90506000610b9f8286610c20565b905083811015610be4576040517f08c379a0000000000000000000000000000000000000000000000000000000008152600401610bdb90611aa7565b60405180910390fd5b610bf18286868403610d33565b60019250505092915050565b600080610c08610d2b565b9050610c15818585610f8a565b600191505092915050565b6000600160008473ffffffffffffffffffffffffffffffffffffffff1673ffffffffffffffffffffffffffffffffffffffff16815260200190815260200160002060008373ffffffffffffffffffffffffffffffffffffffff1673ffffffffffffffffffffffffffffffffffffffff16815260200190815260200160002054905092915050565b610caf61120b565b600073ffffffffffffffffffffffffffffffffffffffff168173ffffffffffffffffffffffffffffffffffffffff161415610d1f576040517f08c379a0000000000000000000000000000000000000000000000000000000008152600401610d1690611b39565b60405180910390fd5b610d28816113e9565b50565b600033905090565b600073ffffffffffffffffffffffffffffffffffffffff168373ffffffffffffffffffffffffffffffffffffffff161415610da3576040517f08c379a0000000000000000000000000000000000000000000000000000000008152600401610d9a90611bcb565b60405180910390fd5b600073ffffffffffffffffffffffffffffffffffffffff168273ffffffffffffffffffffffffffffffffffffffff161415610e13576040517f08c379a0000000000000000000000000000000000000000000000000000000008152600401610e0a90611c5d565b60405180910390fd5b80600160008573ffffffffffffffffffffffffffffffffffffffff1673ffffffffffffffffffffffffffffffffffffffff16815260200190815260200160002060008473ffffffffffffffffffffffffffffffffffffffff1673ffffffffffffffffffffffffffffffffffffffff168152602001908152602001600020819055508173ffffffffffffffffffffffffffffffffffffffff168373ffffffffffffffffffffffffffffffffffffffff167f8c5be1e5ebec7d5bd14f71427d1e84f3dd0314c0f7b2291e5b200ac8c7c3b92583604051610ef19190611692565b60405180910390a3505050565b6000610f0a8484610c20565b90507fffffffffffffffffffffffffffffffffffffffffffffffffffffffffffffffff8114610f845781811015610f76576040517f08c379a0000000000000000000000000000000000000000000000000000000008152600401610f6d90611cc9565b60405180910390fd5b610f838484848403610d33565b5b50505050565b600073ffffffffffffffffffffffffffffffffffffffff168373ffffffffffffffffffffffffffffffffffffffff161415610ffa576040517f08c379a0000000000000000000000000000000000000000000000000000000008152600401610ff190611d5b565b60405180910390fd5b600073ffffffffffffffffffffffffffffffffffffffff168273ffffffffffffffffffffffffffffffffffffffff16141561106a576040517f08c379a000000000000000000000000000000000000000000000000000000000815260040161106190611ded565b60405180910390fd5b6110758383836114af565b60008060008573ffffffffffffffffffffffffffffffffffffffff1673ffffffffffffffffffffffffffffffffffffffff168152602001908152602001600020549050818110156110fb576040517f08c379a00000000000000000000000000000000000000000000000000000000081526004016110f290611e7f565b60405180910390fd5b8181036000808673ffffffffffffffffffffffffffffffffffffffff1673ffffffffffffffffffffffffffffffffffffffff16815260200190815260200160002081905550816000808573ffffffffffffffffffffffffffffffffffffffff1673ffffffffffffffffffffffffffffffffffffffff168152602001908152602001600020600082825461118e919061188b565b925050819055508273ffffffffffffffffffffffffffffffffffffffff168473ffffffffffffffffffffffffffffffffffffffff167fddf252ad1be2c89b69c2b068fc378daa952ba7f163c4a11628f55a4df523b3ef846040516111f29190611692565b60405180910390a36112058484846114b4565b50505050565b611213610d2b565b73ffffffffffffffffffffffffffffffffffffffff16611231610a04565b73ffffffffffffffffffffffffffffffffffffffff1614611287576040517f08c379a000000000000000000000000000000000000000000000000000000000815260040161127e90611eeb565b60405180910390fd5b565b600073ffffffffffffffffffffffffffffffffffffffff168273ffffffffffffffffffffffffffffffffffffffff1614156112f9576040517f08c379a00000000000000000000000000000000000000000000000000000000081526004016112f090611f57565b60405180910390fd5b611305600083836114af565b8060026000828254611317919061188b565b92505081905550806000808473ffffffffffffffffffffffffffffffffffffffff1673ffffffffffffffffffffffffffffffffffffffff168152602001908152602001600020600082825461136c919061188b565b925050819055508173ffffffffffffffffffffffffffffffffffffffff16600073ffffffffffffffffffffffffffffffffffffffff167fddf252ad1be2c89b69c2b068fc378daa952ba7f163c4a11628f55a4df523b3ef836040516113d19190611692565b60405180910390a36113e5600083836114b4565b5050565b6000600560009054906101000a900473ffffffffffffffffffffffffffffffffffffffff16905081600560006101000a81548173ffffffffffffffffffffffffffffffffffffffff021916908373ffffffffffffffffffffffffffffffffffffffff1602179055508173ffffffffffffffffffffffffffffffffffffffff168173ffffffffffffffffffffffffffffffffffffffff167f8be0079c531659141344cd1fd0a4f28419497f9722a3daafe3b4186f6b6457e060405160405180910390a35050565b505050565b505050565b600081519050919050565b600082825260208201905092915050565b60005b838110156114f35780820151818401526020810190506114d8565b83811115611502576000848401525b50505050565b6000601f19601f8301169050919050565b6000611524826114b9565b61152e81856114c4565b935061153e8185602086016114d5565b61154781611508565b840191505092915050565b6000602082019050818103600083015261156c8184611519565b905092915050565b600080fd5b600073ffffffffffffffffffffffffffffffffffffffff82169050919050565b60006115a482611579565b9050919050565b6115b481611599565b81146115bf57600080fd5b50565b6000813590506115d1816115ab565b92915050565b6000819050919050565b6115ea816115d7565b81146115f557600080fd5b50565b600081359050611607816115e1565b92915050565b6000806040838503121561162457611623611574565b5b6000611632858286016115c2565b9250506020611643858286016115f8565b9150509250929050565b60008115159050919050565b6116628161164d565b82525050565b600060208201905061167d6000830184611659565b92915050565b61168c816115d7565b82525050565b60006020820190506116a76000830184611683565b92915050565b6000806000606084860312156116c6576116c5611574565b5b60006116d4868287016115c2565b93505060206116e5868287016115c2565b92505060406116f6868287016115f8565b9150509250925092565b600060ff82169050919050565b61171681611700565b82525050565b6000602082019050611731600083018461170d565b92915050565b60006020828403121561174d5761174c611574565b5b600061175b848285016115c2565b91505092915050565b60006020828403121561177a57611779611574565b5b6000611788848285016115f8565b91505092915050565b61179a81611599565b82525050565b60006020820190506117b56000830184611791565b92915050565b600080604083850312156117d2576117d1611574565b5b60006117e0858286016115c2565b92505060206117f1858286016115c2565b9150509250929050565b7f4e487b7100000000000000000000000000000000000000000000000000000000600052602260045260246000fd5b6000600282049050600182168061184257607f821691505b60208210811415611856576118556117fb565b5b50919050565b7f4e487b7100000000000000000000000000000000000000000000000000000000600052601160045260246000fd5b6000611896826115d7565b91506118a1836115d7565b9250827fffffffffffffffffffffffffffffffffffffffffffffffffffffffffffffffff038211156118d6576118d561185c565b5b828201905092915050565b600081905092915050565b50565b60006118fc6000836118e1565b9150611907826118ec565b600082019050919050565b600061191d826118ef565b9150819050919050565b600081519050611936816115e1565b92915050565b60006020828403121561195257611951611574565b5b600061196084828501611927565b91505092915050565b600060408201905061197e6000830185611791565b61198b6020830184611683565b9392505050565b600061199d826115d7565b91507fffffffffffffffffffffffffffffffffffffffffffffffffffffffffffffffff8214156119d0576119cf61185c565b5b600182019050919050565b60006119e6826115d7565b91506119f1836115d7565b9250817fffffffffffffffffffffffffffffffffffffffffffffffffffffffffffffffff0483118215151615611a2a57611a2961185c565b5b828202905092915050565b7f45524332303a2064656372656173656420616c6c6f77616e63652062656c6f7760008201527f207a65726f000000000000000000000000000000000000000000000000000000602082015250565b6000611a916025836114c4565b9150611a9c82611a35565b604082019050919050565b60006020820190508181036000830152611ac081611a84565b9050919050565b7f4f776e61626c653a206e6577206f776e657220697320746865207a65726f206160008201527f6464726573730000000000000000000000000000000000000000000000000000602082015250565b6000611b236026836114c4565b9150611b2e82611ac7565b604082019050919050565b60006020820190508181036000830152611b5281611b16565b9050919050565b7f45524332303a20617070726f76652066726f6d20746865207a65726f2061646460008201527f7265737300000000000000000000000000000000000000000000000000000000602082015250565b6000611bb56024836114c4565b9150611bc082611b59565b604082019050919050565b60006020820190508181036000830152611be481611ba8565b9050919050565b7f45524332303a20617070726f766520746f20746865207a65726f20616464726560008201527f7373000000000000000000000000000000000000000000000000000000000000602082015250565b6000611c476022836114c4565b9150611c5282611beb565b604082019050919050565b60006020820190508181036000830152611c7681611c3a565b9050919050565b7f45524332303a20696e73756666696369656e7420616c6c6f77616e6365000000600082015250565b6000611cb3601d836114c4565b9150611cbe82611c7d565b602082019050919050565b60006020820190508181036000830152611ce281611ca6565b9050919050565b7f45524332303a207472616e736665722066726f6d20746865207a65726f20616460008201527f6472657373000000000000000000000000000000000000000000000000000000602082015250565b6000611d456025836114c4565b9150611d5082611ce9565b604082019050919050565b60006020820190508181036000830152611d7481611d38565b9050919050565b7f45524332303a207472616e7366657220746f20746865207a65726f206164647260008201527f6573730000000000000000000000000000000000000000000000000000000000602082015250565b6000611dd76023836114c4565b9150611de282611d7b565b604082019050919050565b60006020820190508181036000830152611e0681611dca565b9050919050565b7f45524332303a207472616e7366657220616d6f756e742065786365656473206260008201527f616c616e63650000000000000000000000000000000000000000000000000000602082015250565b6000611e696026836114c4565b9150611e7482611e0d565b604082019050919050565b60006020820190508181036000830152611e9881611e5c565b9050919050565b7f4f776e61626c653a2063616c6c6572206973206e6f7420746865206f776e6572600082015250565b6000611ed56020836114c4565b9150611ee082611e9f565b602082019050919050565b60006020820190508181036000830152611f0481611ec8565b9050919050565b7f45524332303a206d696e7420746f20746865207a65726f206164647265737300600082015250565b6000611f41601f836114c4565b9150611f4c82611f0b565b602082019050919050565b60006020820190508181036000830152611f7081611f34565b905091905056fea26469706673582212200521642ce357d5602b9a15f5d708c97bc95049ba0f0fb94dd8071e6447cd886164736f6c63430008090033",
  "devdoc": {
    "author": "Kehinde A.",
    "kind": "dev",
    "methods": {
      "allowance(address,address)": {
        "details": "See {IERC20-allowance}."
      },
      "approve(address,uint256)": {
        "details": "See {IERC20-approve}. NOTE: If `amount` is the maximum `uint256`, the allowance is not updated on `transferFrom`. This is semantically equivalent to an infinite approval. Requirements: - `spender` cannot be the zero address."
      },
      "balanceOf(address)": {
        "details": "See {IERC20-balanceOf}."
      },
      "claim()": {
        "details": "Mints token based on the number of NFT's held by the sender Requiremnt: balance of Crypto Dev NFT's owned by the sender should be greater than 0 Token should have not been claimed for all the NFT's owned by the sneder"
      },
      "constructor": {
        "details": "ERC20 constructor takes in a `name` and a `symbol`. name in our case is `Crypto Devs Token` and symbol is `CD`. Constructor for ICO initializes an instance of CryptoDevs interface."
      },
      "decimals()": {
        "details": "Returns the number of decimals used to get its user representation. For example, if `decimals` equals `2`, a balance of `505` tokens should be displayed to a user as `5.05` (`505 / 10 ** 2`). Tokens usually opt for a value of 18, imitating the relationship between Ether and Wei. This is the value {ERC20} uses, unless this function is overridden; NOTE: This information is only used for _display_ purposes: it in no way affects any of the arithmetic of the contract, including {IERC20-balanceOf} and {IERC20-transfer}."
      },
      "decreaseAllowance(address,uint256)": {
        "details": "Atomically decreases the allowance granted to `spender` by the caller. This is an alternative to {approve} that can be used as a mitigation for problems described in {IERC20-approve}. Emits an {Approval} event indicating the updated allowance. Requirements: - `spender` cannot be the zero address. - `spender` must have allowance for the caller of at least `subtractedValue`."
      },
      "increaseAllowance(address,uint256)": {
        "details": "Atomically increases the allowance granted to `spender` by the caller. This is an alternative to {approve} that can be used as a mitigation for problems described in {IERC20-approve}. Emits an {Approval} event indicating the updated allowance. Requirements: - `spender` cannot be the zero address."
      },
      "mint(uint256)": {
        "details": "Mints `amount` number of CryptoDevTokens Requirements: - `msg.value` should be equal or greater than the tokenPrice * amount"
      },
      "name()": {
        "details": "Returns the name of the token."
      },
      "owner()": {
        "details": "Returns the address of the current owner."
      },
      "renounceOwnership()": {
        "details": "Leaves the contract without owner. It will not be possible to call `onlyOwner` functions anymore. Can only be called by the current owner. NOTE: Renouncing ownership will leave the contract without an owner, thereby removing any functionality that is only available to the owner."
      },
      "symbol()": {
        "details": "Returns the symbol of the token, usually a shorter version of the name."
      },
      "totalSupply()": {
        "details": "See {IERC20-totalSupply}."
      },
      "transfer(address,uint256)": {
        "details": "See {IERC20-transfer}. Requirements: - `to` cannot be the zero address. - the caller must have a balance of at least `amount`."
      },
      "transferFrom(address,address,uint256)": {
        "details": "See {IERC20-transferFrom}. Emits an {Approval} event indicating the updated allowance. This is not required by the EIP. See the note at the beginning of {ERC20}. NOTE: Does not update the allowance if the current allowance is the maximum `uint256`. Requirements: - `from` and `to` cannot be the zero address. - `from` must have a balance of at least `amount`. - the caller must have allowance for ``from``'s tokens of at least `amount`."
      },
      "transferOwnership(address)": {
        "details": "Transfers ownership of the contract to a new account (`newOwner`). Can only be called by the current owner."
      },
      "withdraw()": {
        "details": "withdraws all ETH and token sent to the contract Requirements: wallet connected must be owner's address"
      }
    },
    "title": "ICO",
    "version": 1
  },
  "userdoc": {
    "kind": "user",
    "methods": {},
    "notice": "A Crypto Dev Token. Token will be given out for free to all our NFT holders, and will be avaiable for purchase to other people to buy for ETH. There should be a max of 10,000 CD tokens. Every Crypto Dev NFT holder should get 10 tokens for free but they would have to pay the gas fees. The price of one CD at the time of ICO should be 0.001 ether.",
    "version": 1
  },
  "storageLayout": {
    "storage": [
      {
        "astId": 128,
        "contract": "contracts/ICO.sol:ICO",
        "label": "_balances",
        "offset": 0,
        "slot": "0",
        "type": "t_mapping(t_address,t_uint256)"
      },
      {
        "astId": 134,
        "contract": "contracts/ICO.sol:ICO",
        "label": "_allowances",
        "offset": 0,
        "slot": "1",
        "type": "t_mapping(t_address,t_mapping(t_address,t_uint256))"
      },
      {
        "astId": 136,
        "contract": "contracts/ICO.sol:ICO",
        "label": "_totalSupply",
        "offset": 0,
        "slot": "2",
        "type": "t_uint256"
      },
      {
        "astId": 138,
        "contract": "contracts/ICO.sol:ICO",
        "label": "_name",
        "offset": 0,
        "slot": "3",
        "type": "t_string_storage"
      },
      {
        "astId": 140,
        "contract": "contracts/ICO.sol:ICO",
        "label": "_symbol",
        "offset": 0,
        "slot": "4",
        "type": "t_string_storage"
      },
      {
        "astId": 7,
        "contract": "contracts/ICO.sol:ICO",
        "label": "_owner",
        "offset": 0,
        "slot": "5",
        "type": "t_address"
      },
      {
        "astId": 3391,
        "contract": "contracts/ICO.sol:ICO",
        "label": "CryptoDevsNFT",
        "offset": 0,
        "slot": "6",
        "type": "t_contract(INFTCollection)3634"
      },
      {
        "astId": 3395,
        "contract": "contracts/ICO.sol:ICO",
        "label": "tokenIdsClaimed",
        "offset": 0,
        "slot": "7",
        "type": "t_mapping(t_uint256,t_bool)"
      }
    ],
    "types": {
      "t_address": {
        "encoding": "inplace",
        "label": "address",
        "numberOfBytes": "20"
      },
      "t_bool": {
        "encoding": "inplace",
        "label": "bool",
        "numberOfBytes": "1"
      },
      "t_contract(INFTCollection)3634": {
        "encoding": "inplace",
        "label": "contract INFTCollection",
        "numberOfBytes": "20"
      },
      "t_mapping(t_address,t_mapping(t_address,t_uint256))": {
        "encoding": "mapping",
        "key": "t_address",
        "label": "mapping(address => mapping(address => uint256))",
        "numberOfBytes": "32",
        "value": "t_mapping(t_address,t_uint256)"
      },
      "t_mapping(t_address,t_uint256)": {
        "encoding": "mapping",
        "key": "t_address",
        "label": "mapping(address => uint256)",
        "numberOfBytes": "32",
        "value": "t_uint256"
      },
      "t_mapping(t_uint256,t_bool)": {
        "encoding": "mapping",
        "key": "t_uint256",
        "label": "mapping(uint256 => bool)",
        "numberOfBytes": "32",
        "value": "t_bool"
      },
      "t_string_storage": {
        "encoding": "bytes",
        "label": "string",
        "numberOfBytes": "32"
      },
      "t_uint256": {
        "encoding": "inplace",
        "label": "uint256",
        "numberOfBytes": "32"
      }
    }
  }
}