{
  "address": "0x6f7F7A6832DDEC5e753c059dC955cD729D237705",
  "abi": [
    {
      "inputs": [],
      "name": "purchase_NotEnoughETH",
      "type": "error"
    },
    {
      "stateMutability": "payable",
      "type": "fallback"
    },
    {
      "inputs": [
        {
          "internalType": "uint256",
          "name": "_tokenId",
          "type": "uint256"
        }
      ],
      "name": "available",
      "outputs": [
        {
          "internalType": "bool",
          "name": "",
          "type": "bool"
        }
      ],
      "stateMutability": "view",
      "type": "function"
    },
    {
      "inputs": [],
      "name": "getNFTPrice",
      "outputs": [
        {
          "internalType": "uint256",
          "name": "",
          "type": "uint256"
        }
      ],
      "stateMutability": "pure",
      "type": "function"
    },
    {
      "inputs": [
        {
          "internalType": "uint256",
          "name": "id",
          "type": "uint256"
        }
      ],
      "name": "getOwnerOfToken",
      "outputs": [
        {
          "internalType": "address",
          "name": "",
          "type": "address"
        }
      ],
      "stateMutability": "view",
      "type": "function"
    },
    {
      "inputs": [
        {
          "internalType": "uint256",
          "name": "_tokenId",
          "type": "uint256"
        }
      ],
      "name": "purchase",
      "outputs": [],
      "stateMutability": "payable",
      "type": "function"
    },
    {
      "stateMutability": "payable",
      "type": "receive"
    }
  ],
  "transactionHash": "0x352251f2946c72e34b91352022820645ef9a3dd1f7063dea269fe1bc2176f83e",
  "args": [],
  "numDeployments": 1,
  "solcInputHash": "aa5b3e268352267ae28faa101df67ea4",
  "bytecode": "0x608060405234801561001057600080fd5b506103c3806100206000396000f3fe6080604052600436106100435760003560e01c80637f1dd80b1461004c57806396e494e814610089578063efef39a1146100c6578063fb107a4f146100e25761004a565b3661004a57005b005b34801561005857600080fd5b50610073600480360381019061006e91906102a4565b61010d565b6040516100809190610312565b60405180910390f35b34801561009557600080fd5b506100b060048036038101906100ab91906102a4565b610149565b6040516100bd9190610348565b60405180910390f35b6100e060048036038101906100db91906102a4565b6101c4565b005b3480156100ee57600080fd5b506100f7610259565b6040516101049190610372565b60405180910390f35b600080600083815260200190815260200160002060009054906101000a900473ffffffffffffffffffffffffffffffffffffffff169050919050565b60008073ffffffffffffffffffffffffffffffffffffffff1660008084815260200190815260200160002060009054906101000a900473ffffffffffffffffffffffffffffffffffffffff1673ffffffffffffffffffffffffffffffffffffffff1614156101ba57600190506101bf565b600090505b919050565b67016345785d8a00003414610205576040517f8bca4abf00000000000000000000000000000000000000000000000000000000815260040160405180910390fd5b3360008083815260200190815260200160002060006101000a81548173ffffffffffffffffffffffffffffffffffffffff021916908373ffffffffffffffffffffffffffffffffffffffff16021790555050565b600067016345785d8a0000905090565b600080fd5b6000819050919050565b6102818161026e565b811461028c57600080fd5b50565b60008135905061029e81610278565b92915050565b6000602082840312156102ba576102b9610269565b5b60006102c88482850161028f565b91505092915050565b600073ffffffffffffffffffffffffffffffffffffffff82169050919050565b60006102fc826102d1565b9050919050565b61030c816102f1565b82525050565b60006020820190506103276000830184610303565b92915050565b60008115159050919050565b6103428161032d565b82525050565b600060208201905061035d6000830184610339565b92915050565b61036c8161026e565b82525050565b60006020820190506103876000830184610363565b9291505056fea2646970667358221220055e1cf10dbcace3bdd8ad73975590591c159913a131976c1f2443dc076944de64736f6c63430008090033",
  "devdoc": {
    "author": "Kehinde A.",
    "kind": "dev",
    "methods": {
      "available(uint256)": {
        "details": "avaiable() checks whether the given tokenId has already been sold or not",
        "params": {
          "_tokenId": "- the fake NFT token Id to purchsae"
        }
      },
      "getNFTPrice()": {
        "details": "getPrice() returns the price of one NFT"
      },
      "getOwnerOfToken(uint256)": {
        "details": "getOwnerOfToken returns the address of the token owner based on the inputed Id"
      },
      "purchase(uint256)": {
        "params": {
          "_tokenId": "- the nft token Id to purchase"
        }
      }
    },
    "title": "NFT marketplace",
    "version": 1
  },
  "userdoc": {
    "kind": "user",
    "methods": {},
    "notice": "A Crypto Dev Marketplace. A simplified NFT marketplace to be able to purchase NFTs automatically when a proposal is passed.",
    "version": 1
  },
  "storageLayout": {
    "storage": [
      {
        "astId": 4020,
        "contract": "contracts/NFTMarketplace.sol:NFTMarketplace",
        "label": "tokens",
        "offset": 0,
        "slot": "0",
        "type": "t_mapping(t_uint256,t_address)"
      }
    ],
    "types": {
      "t_address": {
        "encoding": "inplace",
        "label": "address",
        "numberOfBytes": "20"
      },
      "t_mapping(t_uint256,t_address)": {
        "encoding": "mapping",
        "key": "t_uint256",
        "label": "mapping(uint256 => address)",
        "numberOfBytes": "32",
        "value": "t_address"
      },
      "t_uint256": {
        "encoding": "inplace",
        "label": "uint256",
        "numberOfBytes": "32"
      }
    }
  }
}